:100000000C9462000C948A000C948A000C948A0070
:100010000C948A000C948A000C948A000C948A0038
:100020000C948A000C948A000C948A000C948A0028
:100030000C948A000C948A000C948A000C948A0018
:100040000C94C2050C948A000C9490050C946A05DB
:100050000C948A000C948A000C948A000C948A00F8
:100060000C948A000C948A000000000024002700F1
:100070002A0000000000250028002B0000000000DE
:1000800023002600290004040404040404040202DA
:100090000202020203030303030301020408102007
:1000A0004080010204081020010204081020000012
:1000B0000008000201000003040700000000000027
:1000C00000000C0611241FBECFEFD8E0DEBFCDBF6D
:1000D00012E0A0E0B1E0E8E8F8E102C005900D927E
:1000E000A433B107D9F722E0A4E3B2E001C01D9226
:1000F000A83FB207E1F710E0C2E6D0E004C02197C4
:10010000FE010E943C0CC136D107C9F70E94570678
:100110000C94420C0C940000AF92BF92CF92DF92ED
:10012000EF92FF920F931F93CF93DF936C017B01AC
:100130008B01040F151FEB015E01AE18BF08C0173D
:10014000D10759F06991D601ED91FC910190F081B0
:10015000E02DC6010995892B79F7C501DF91CF9173
:100160001F910F91FF90EF90DF90CF90BF90AF90D5
:100170000895FC01538D448D252F30E0842F90E0AD
:10018000821B930B541710F0CF9608950197089592
:10019000FC01918D828D981761F0A28DAE0FBF2F5B
:1001A000B11D5D968C91928D9F5F9F73928F90E0B1
:1001B00008958FEF9FEF0895FC01918D828D981720
:1001C00031F0828DE80FF11D858D90E008958FEF5D
:1001D0009FEF0895FC01918D228D892F90E0805C26
:1001E0009F4F821B91098F739927089583E492E0B2
:1001F0000E94EA0021E0892B09F420E0822F089573
:1002000080E090E0892B29F00E94F60081110C9487
:1002100000000895FC01A48DA80FB92FB11DA35AA9
:10022000BF4F2C91848D90E001968F739927848F16
:10023000A689B7892C93A089B1898C918370806439
:100240008C93938D848D981306C00288F389E02DDA
:1002500080818F7D80830895EF92FF920F931F938B
:10026000CF93DF93EC0181E0888F9B8D8C8D981369
:100270001AC0E889F989808185FF15C09FB7F89475
:10028000EE89FF896083E889F989808183708064C1
:1002900080839FBF81E090E0DF91CF911F910F910C
:1002A000FF90EF900895F62E0B8D10E00F5F1F4F1B
:1002B0000F731127E02E8C8D8E110CC00FB607FC2A
:1002C000FACFE889F989808185FFF5CFCE010E94B8
:1002D0000A01F1CFEB8DEC0FFD2FF11DE35AFF4F1B
:1002E000F0829FB7F8940B8FEA89FB898081806246
:1002F000CFCFCF93DF93EC01888D8823B9F0AA8903
:10030000BB89E889F9898C9185FD03C0808186FDD0
:100310000DC00FB607FCF7CF8C9185FFF2CF80811F
:1003200085FFEDCFCE010E940A01E9CFDF91CF9189
:100330000895833081F028F4813099F08230A9F05B
:1003400008958730A9F08830C9F08430B1F48091E5
:1003500080008F7D03C0809180008F778093800024
:10036000089584B58F7784BD089584B58F7DFBCFC4
:100370008091B0008F778093B00008958091B00095
:100380008F7DF9CF1F93CF93DF93282F30E0F901B2
:10039000E255FF4F8491F901E656FF4FD491F901E0
:1003A000EA57FF4FC491CC23A9F0162F81110E9468
:1003B0009901EC2FF0E0EE0FFF1FEE58FF4FA591D3
:1003C000B4918FB7F894EC91111108C0D095DE2349
:1003D000DC938FBFDF91CF911F910895DE2BF8CF73
:1003E000CF93DF9390E0FC01E656FF4F24918A57AC
:1003F0009F4FFC0184918823D1F090E0880F991FD2
:10040000FC01E859FF4FA591B491FC01EE58FF4F54
:10041000C591D49161110EC09FB7F8948C91E22FD1
:10042000E0958E238C932881E223E8839FBFDF91A0
:10043000CF9108958FB7F894EC91E22BEC938FBF96
:10044000F6CF2091000190E4299F900111248E5055
:10045000822B80937C0080917A00806480937A0064
:1004600080917A0086FDFCCF809178009091790090
:1004700008953FB7F8948091350290913602A0918B
:100480003702B091380226B5A89B05C02F3F19F05E
:100490000196A11DB11D3FBFBA2FA92F982F882704
:1004A000BC01CD01620F711D811D911D42E0660FDF
:1004B000771F881F991F4A95D1F708958F929F92B1
:1004C000AF92BF92CF92DF92EF92FF924B015C010D
:1004D0000E9439026B017C010E9439026C197D096E
:1004E0008E099F09683E734081059105A8F321E0BC
:1004F000821A9108A108B10888EEC80E83E0D81EC0
:10050000E11CF11C81149104A104B10429F7FF90AE
:10051000EF90DF90CF90BF90AF909F908F90089515
:10052000089590E080E00895CF93DF93EC0160E0C0
:100530008E810E94C20161E08E810E94C20160E052
:100540008E810E94C2018BE891E00197F1F7DF9163
:10055000CF910895CF92DF92EF92FF920F931F9366
:10056000CF93DF936C017C0187E0E80EF11CD0E0B3
:10057000C0E0062F10E0B8010C2E02C075956795FB
:100580000A94E2F76170F70181917F010E94C20134
:100590002196C430D10579F7C601DF91CF911F9123
:1005A0000F91FF90EF90DF90CF900C949402CF9238
:1005B000DF92EF92FF920F931F93CF93DF93EC01A3
:1005C000F62E642F8C810E94C2018D818F3F19F01D
:1005D00060E00E94C2010F2D10E08F8584FF25C0CE
:1005E0006E0187E0C80ED11CF12CE12CB8010E2C55
:1005F00002C0759567950A94E2F76170F6018191E2
:100600006F010E94C201FFEFEF1AFF0A88E0E816AF
:10061000F10461F7CE01DF91CF911F910F91FF900F
:10062000EF90DF90CF900C949402B80184E0759520
:1006300067958A95E1F7CE010E94AA026F2DCE013F
:10064000DF91CF911F910F91FF90EF90DF90CF90AE
:100650000C94AA0240E0682F80EE92E00C94D7023E
:10066000CF93DF93613029F09091EF0298609093DF
:10067000EF026093F3021092F40290E49093F5027B
:100680008093F602805C8093F70261E08091E4023F
:100690000E94F0018091E5028F3F19F061E00E9415
:1006A000F00161E08091E6020E94F001C0EED2E02C
:1006B0009E01205E32408091EF0284FD0BC084E0F9
:1006C00090E021962817390744F461E08E810E945A
:1006D000F001EECF88E090E0F4CF8BE39DE001974E
:1006E000F1F760E08091E4020E94C20160E0809135
:1006F000E6020E94C2018091E5028F3F19F060E09E
:100700000E94C2018091EF0284FD39C063E080EE57
:1007100092E00E94AA02CBE4D6E4CE010197F1F761
:1007200063E080EE92E00E94AA022197F1F763E075
:1007300080EE92E00E94AA0283E592E00197F1F731
:1007400062E080EE92E00E94AA028091EF02806255
:100750000E942A0384E08093F0028CE00E942A0326
:1007600081E00E942A038BE39FE10197F1F782E089
:100770008093F10286E0DF91CF910C942A0380628E
:100780000E942A038BE496E40197F1F78091EF022F
:1007900080620E942A0383E592E00197F1F780913D
:1007A000EF0280620E942A03D0CF9091F302891752
:1007B00010F08FEF890FE82FF0E0E052FD4F8489B1
:1007C00080680C942A0341E00E94D70281E090E007
:1007D0000895FB0101900020E9F73197AF01461B16
:1007E000570BDC01ED91FC910280F381E02D09941F
:1007F0008F929F92AF92BF92EF92FF920F931F93AF
:10080000CF93DF93CDB7DEB7A1970FB6F894DEBFD5
:100810000FBECDBF7C01FA01CB0119A2223008F432
:100820002AE08E010F5D1F4F822E912CB12CA12C3E
:10083000BF01A50194010E94FB0BF901CA016A30B6
:100840000CF5605DD8016E938D01232B242B252B95
:1008500079F790E080E0109721F0BD01C7010E9478
:10086000E903A1960FB6F894DEBF0FBECDBFDF91AE
:10087000CF911F910F91FF90EF90BF90AF909F90FD
:100880008F900895695CDECFCF92DF92EF92FF9256
:10089000CF93DF936B017C016DE283E492E00E94D1
:1008A0002C01EC0144275527BA014C195D096E094A
:1008B0007F092AE083E492E00E94F8038C0F9D1FD9
:1008C000DF91CF91FF90EF90DF90CF900895CF937D
:1008D000DF93BC0183E492E00E94E903EC016BE446
:1008E00071E083E492E00E94E9038C0F9D1FDF9189
:1008F000CF9108952F923F924F925F926F927F9285
:100900008F929F92AF92BF92CF92DF92EF92FF921F
:100910001F93CF93DF93EC016A017B01722EAB0131
:100920009601CB01B6010E94E10B6EE471E08111EA
:1009300026C046015701E894B7F82FEF3FEF4FE785
:100940005FE7C501B4010E94E10B81110CC02FEFDC
:100950003FEF4FE75FE7C501B4010E94CA0962E5B6
:1009600071E0181664F02FEF3FEF4FE75FE4C70127
:10097000B6010E94290B1816B4F466E571E0CE01A9
:10098000DF91CF911F91FF90EF90DF90CF90BF90BC
:10099000AF909F908F907F906F905F904F903F901F
:1009A0002F900C94E9032FEF3FEF4FE75FECC70167
:1009B000B6010E94CA0987FDE0CF20E030E0A9011E
:1009C000C701B6010E94CA09312C212C87FF0DC036
:1009D000E881F9810190F081E02D6DE2CE01099569
:1009E0001C01F7FAF094F7F8F09410E060E070E082
:1009F00080E09FE3711641F020E030E040E251E4F6
:100A00000E94CF091F5FF6CFA70196010E945E09E1
:100A10002B013C010E94480A4B015C012AE0BC0109
:100A2000A401CE010E94F8037C01E20CF31C112307
:100A3000E1F1C501B4010E94770A9B01AC01C30139
:100A4000B2010E945D094B015C01E881F9810190CE
:100A5000F081E02D6EE2CE010995E80EF91E1150ED
:100A600020F120E030E040E251E4C501B4010E94F1
:100A70002E0B2B013C010E94480A4B01B12CA12CEA
:100A80002AE0B501A401CE010E94F803E80EF91E88
:100A9000C501B4010E94770A9B01AC01C301B201F8
:100AA0000E945D094B015C01DACFC701DF91CF9154
:100AB0001F91FF90EF90DF90CF90BF90AF909F90ED
:100AC0008F907F906F905F904F903F902F90089500
:100AD0000C94E9031F920F920FB60F9211242F93DB
:100AE0003F934F935F936F937F938F939F93AF93B6
:100AF000BF93EF93FF9383E492E00E940A01FF917A
:100B0000EF91BF91AF919F918F917F916F915F9185
:100B10004F913F912F910F900FBE0F901F901895FE
:100B20001F920F920FB60F9211242F938F939F93C2
:100B3000EF93FF93E0915302F09154028081E09192
:100B40005902F0915A0282FD1BC0908180915C0293
:100B50008F5F8F7320915D02821741F0E0915C02FC
:100B6000F0E0ED5BFD4F958F80935C02FF91EF917C
:100B70009F918F912F910F900FBE0F901F901895FE
:100B80008081F4CF1F920F920FB60F9211242F93F2
:100B90003F938F939F93AF93BF938091390290912E
:100BA0003A02A0913B02B0913C023091340223E022
:100BB000230F2D3758F50196A11DB11D2093340246
:100BC0008093390290933A02A0933B02B0933C0287
:100BD0008091350290913602A0913702B09138028F
:100BE0000196A11DB11D8093350290933602A0930A
:100BF0003702B0933802BF91AF919F918F913F918F
:100C00002F910F900FBE0F901F90189526E8230F7D
:100C10000296A11DB11DD2CFE3E4F2E0138212824D
:100C200088EE93E0A0E0B0E084839583A683B78349
:100C300081E391E09183808385EC90E095878487C0
:100C400084EC90E09787868780EC90E0918B808B96
:100C500081EC90E0938B828B82EC90E0958B848B7F
:100C600086EC90E0978B868B118E128E138E148EED
:100C7000E0EEF2E01382128283E491E091838083BC
:100C800088E084838FEF858389E0868384E087838F
:100C900085E0808786E0818787E0828713861486D7
:100CA00015861686178661E080E10C943003CF9399
:100CB000DF93CDB7DEB72C970FB6F894DEBF0FBE2B
:100CC000CDBF789484B5826084BD84B5816084BDD5
:100CD00085B5826085BD85B5816085BD80916E00DA
:100CE000816080936E00109281008091810082600B
:100CF0008093810080918100816080938100809148
:100D000080008160809380008091B1008460809336
:100D1000B1008091B00081608093B00080917A0032
:100D2000846080937A0080917A00826080937A0058
:100D300080917A00816080937A0080917A00806847
:100D400080937A001092C10060E082E00E94F0017E
:100D500061E08DE00E94F00161E08CE00E94F00112
:100D600061E08BE00E94F00161E08BE00E94C20133
:100D700064E084E10E943003E0915302F091540258
:100D800082E08083E0914F02F09150021082E09166
:100D90005102F09152028FEC808310925B02E0913D
:100DA0005702F091580286E08083E0915502F0915D
:100DB0005602808180618083E0915502F091560255
:100DC000808188608083E0915502F0915602808195
:100DD00080688083E0915502F091560280818F7D7A
:100DE000808383E0809300010BE31FE138E8232E2A
:100DF00030E0332E8FB7F8944090390250903A0289
:100E000060903B0270903C028FBFF12CE12C812C52
:100E1000912C54012FB7F8948091390290913A02A5
:100E2000A0913B02B0913C022FBF84199509A609FD
:100E3000B709843F9140A105B10558F58EE00E94A5
:100E40002102BC01990F880B990B0E94790A29E0B5
:100E500030EF4CE85AE30E942E0B20E030E040EFE8
:100E600051E40E942E0B9B01AC010E942E0B9B01B2
:100E7000AC01C501B4010E945E094B015C018FEF1A
:100E8000E81AF80A61E070E080E090E00E945E02FB
:100E9000C1CFA5019401C501B4010E945E094B01B7
:100EA0005C01B701FF0C880B990B0E94790A9B012A
:100EB000AC01C501B4010E94CF090E94A10B2B0116
:100EC0003C0120E030E04CE553E40E942E0B6B0126
:100ED0007C0120E030E04AE754E40E94CF096987B2
:100EE0007A878B879C872FB7F8946091390270912D
:100EF0003A0280913B0290913C022FBF28EE33E0F2
:100F000040E050E00E941D0CCA01B9010E94790A1C
:100F1000A70196010E942E0B20E03AEB4BE55AE424
:100F20000E94CF094B015C018FE00E942102BC01AD
:100F3000990F880B990B0E94790A2AE038E240EA5F
:100F40005BE30E942E0B69837A838B839C8320E072
:100F500030E040EC50E40E942E0B0E94410A6D8369
:100F60007E838F8398878D819E81019725E83BEE54
:100F700049E851E48B30910558F4880F991F880F88
:100F8000991FFC01EF5FFE4F208131814281538127
:100F9000C501B4010E94290B87FF8AC181E00E942C
:100FA0002A03C8010197F1F780E00E94D5036AE5A2
:100FB00071E080EE92E00E94680581E00E94D50316
:100FC0006FE671E080EE92E00E94680522E0B501D4
:100FD000A40180EE92E00E947A0467E771E080EE5F
:100FE00092E00E94680582E00E94D5036BE771E001
:100FF00080EE92E00E94680522E0B301A20180EE3B
:1010000092E00E947A0466E871E080EE92E00E942D
:10101000680583E00E94D50368E871E080EE92E005
:101020000E94680522E049855A856B857C8580EEA3
:1010300092E00E947A0462E971E080EE92E00E9400
:10104000680568EE73E080E090E00E945E0265E96A
:1010500071E083E492E00E94680522E049815A81B0
:101060006B817C8183E492E00E947A046AEA71E0F9
:1010700083E492E00E94680582EE91E00E9467049A
:101080006CEA71E083E492E00E946805ED81FE81E4
:10109000AF01FF0F660B770B77FFECC0CB01BA01F6
:1010A0000E94440482EE91E00E94670469EC71E0C2
:1010B00083E492E00E94680522E0B301A20183E488
:1010C00092E00E947A0466E871E083E492E00E9474
:1010D000680582EE91E00E94670465ED71E083E4AB
:1010E00092E00E94680522E0B701A60183E492E045
:1010F0000E947A0463E971E083E492E00E9468054B
:1011000082EE91E00E94670464EE71E083E492E075
:101110000E94680522E0B701A60183E492E00E94E4
:101120007A0462E971E083E492E00E94680582EE4D
:1011300091E00E94670464EF71E083E492E00E9412
:10114000680522E0B501A40183E492E00E947A04DC
:1011500067E771E083E492E00E94680582EE91E027
:101160000E94670482EE91E00E94670468EE73E0DB
:1011700080E090E00E945E02E0EBF0E08491ECE918
:10118000F0E0F490F101E490EE2009F479C08111CF
:101190000E949901EE2DF0E0EE0FFF1FE458FF4F83
:1011A000A591B4918C91F82231E020E009F430E06F
:1011B000832F922F909342028093410220913F020D
:1011C0003091400228173907A1F1019709F061C059
:1011D00080913D0290913E02019690933E02809351
:1011E0003D028DEF91E00E94670482EE91E00E9443
:1011F00067046DE072E083E492E00E94680540912C
:101200003D0250913E02052E000C660B770B77FFD6
:101210003AC0CB01BA010E9444046BE471E083E45C
:1012200092E00E94E90365E070E080E090E00E94B7
:101230005E0280914102909142029093400280931D
:101240003F0280913D0280FD2DC061E08DE00E9453
:10125000C20160E08CE00E94C20180E090E0892B36
:1012600009F4C8CD0E94F600882309F4C3CD0E947A
:101270000000C0CD2AE083E492E00E94F80312CF80
:1012800090E080E097CF2AE083E492E00E94F803A8
:10129000C4CF82EE91E00E94670485E292E00E9452
:1012A0006704C1CF60E08DE00E94C20161E0D2CF4F
:1012B00060E08BE00E94C20171CE5058BB27AA2784
:1012C0000E9475090C94EF0A0E94E10A38F00E940E
:1012D000E80A20F039F49F3F19F426F40C94DE0A52
:1012E0000EF4E095E7FB0C94D80AE92F0E94000B5E
:1012F00058F3BA17620773078407950720F079F44B
:10130000A6F50C94220B0EF4E0950B2EBA2FA02D0F
:101310000B01B90190010C01CA01A0011124FF27A2
:10132000591B99F0593F50F4503E68F11A16F0409D
:10133000A22F232F342F4427585FF3CF469537959C
:101340002795A795F0405395C9F77EF41F16BA0B61
:10135000620B730B840BBAF09150A1F0FF0FBB1F0F
:10136000661F771F881FC2F70EC0BA0F621F731F58
:10137000841F48F4879577956795B795F7959E3FB5
:1013800008F0B0CF9395880F08F09927EE0F979546
:10139000879508950E94B40A08F481E008950E9498
:1013A000E3090C94EF0A0E94E80A58F00E94E10A4F
:1013B00040F029F45F3F29F00C94D80A51110C94A5
:1013C000230B0C94DE0A0E94000B68F39923B1F3FF
:1013D000552391F3951B550BBB27AA27621773075B
:1013E000840738F09F5F5F4F220F331F441FAA1FEF
:1013F000A9F335D00E2E3AF0E0E832D091505040AB
:10140000E695001CCAF72BD0FE2F29D0660F771F58
:10141000881FBB1F261737074807AB07B0E809F03E
:10142000BB0B802DBF01FF2793585F4F3AF09E3FC3
:10143000510578F00C94D80A0C94230B5F3FE4F329
:10144000983ED4F3869577956795B795F7959F5F06
:10145000C9F7880F911D9695879597F90895E1E052
:10146000660F771F881FBB1F621773078407BA07B1
:1014700020F0621B730B840BBA0BEE1F88F7E0950C
:1014800008950E94480A6894B1110C94230B0895A2
:101490000E94080B88F09F5798F0B92F9927B751F1
:1014A000B0F0E1F0660F771F881F991F1AF0BA9508
:1014B000C9F714C0B13091F00E94220BB1E0089539
:1014C0000C94220B672F782F8827B85F39F0B93F2B
:1014D000CCF3869577956795B395D9F73EF49095BB
:1014E0008095709561957F4F8F4F9F4F0895E89439
:1014F00009C097FB3EF490958095709561957F4F5C
:101500008F4F9F4F9923A9F0F92F96E9BB27939509
:10151000F695879577956795B795F111F8CFFAF419
:10152000BB0F11F460FF1BC06F5F7F4F8F4F9F4F4A
:1015300016C0882311F096E911C0772321F09EE8A8
:10154000872F762F05C0662371F096E8862F70E00E
:1015500060E02AF09A95660F771F881FDAF7880FE8
:101560009695879597F90895990F0008550FAA0B3E
:10157000E0E8FEEF16161706E807F907C0F01216A6
:101580001306E407F50798F0621B730B840B950BA9
:1015900039F40A2661F0232B242B252B21F40895FE
:1015A0000A2609F4A140A6958FEF811D811D08959B
:1015B00097F99F6780E870E060E008959FEF80EC06
:1015C000089500240A9416161706180609060895A9
:1015D00000240A9412161306140605060895092E0F
:1015E0000394000C11F4882352F0BB0F40F4BF2B7E
:1015F00011F460FF04C06F5F7F4F8F4F9F4F0895BE
:1016000057FD9058440F551F59F05F3F71F04795B3
:10161000880F97FB991F61F09F3F79F08795089598
:10162000121613061406551FF2CF4695F1DF08C0B7
:10163000161617061806991FF1CF869571056105D4
:1016400008940895E894BB2766277727CB0197F97C
:1016500008950E94B40A08F48FEF08950E94410B88
:101660000C94EF0A0E94E10A38F00E94E80A20F088
:10167000952311F00C94D80A0C94DE0A11240C94D2
:10168000230B0E94000B70F3959FC1F3950F50E060
:10169000551F629FF001729FBB27F00DB11D639F24
:1016A000AA27F00DB11DAA1F649F6627B00DA11DCA
:1016B000661F829F2227B00DA11D621F739FB00D70
:1016C000A11D621F839FA00D611D221F749F3327E0
:1016D000A00D611D231F849F600D211D822F762F79
:1016E0006A2F11249F5750409AF0F1F088234AF056
:1016F000EE0FFF1FBB1F661F771F881F91505040C2
:10170000A9F79E3F510580F00C94D80A0C94230B46
:101710005F3FE4F3983ED4F3869577956795B79548
:10172000F795E7959F5FC1F7FE2B880F911D969562
:10173000879597F9089519F416F40C94DE0A0C9421
:10174000E60B0E94080BB8F39923C9F3B6F39F5731
:10175000550B87FF0E94F40B0024A0E640EA90019D
:1017600080585695979528F4805C660F771F881FE0
:1017700020F026173707480730F4621B730B840BE1
:10178000202931294A2BA695179407942025312525
:101790004A2758F7660F771F881F20F0261737074C
:1017A000480730F4620B730B840B200D311D411D73
:1017B000A09581F7B901842F9158880F9695879548
:1017C00008950E94B40A880B990B08959F3F31F049
:1017D000915020F4879577956795B795880F911D5F
:1017E0009695879597F9089591505040660F771F09
:1017F000881FD2F70895A1E21A2EAA1BBB1BFD0178
:101800000DC0AA1FBB1FEE1FFF1FA217B307E407DF
:10181000F50720F0A21BB30BE40BF50B661F771F37
:10182000881F991F1A9469F7609570958095909517
:101830009B01AC01BD01CF010895052E97FB1EF45D
:1018400000940E94340C57FD07D00E94FB0B07FC4C
:1018500003D04EF40C94340C50954095309521955E
:101860003F4F4F4F5F4F08959095809570956195CC
:101870007F4F8F4F9F4F0895EE0FFF1F0590F491FC
:08188000E02D0994F894FFCF5C
:10188800015C8F423F5C8F423F8FC2753FB81E8517
:101898003FF6283C4048E19A40E17AF4403D0A2767
:1018A80041A4704D410AD7734185EB89410000007E
:1018B800002C018C00B9007901EA00C800DC0000A6
:1018C800000000E3038C00910290020D0A006E6193
:1018D8006E00696E66006F7666004D6564696369BF
:1018E8006F6E20646520636F6E73756D6F3A004488
:1018F800696172696F3A006B576800436F72726969
:10190800656E74653A004100506F74656E63696175
:101918003A006B5700566F6C74616A6520616E659A
:101928006D6F6D6574726F3A200056004C612076B9
:10193800656C6F63696461642064656C20766965B1
:101948006E746F2065733A2000436F727269656E1A
:1019580074653A2000506F74656E6369612028577A
:10196800293A2000506F74656E63696120286B57AF
:10197800293A200044696172696F3A2000426F7405
:101988006F6E20656E63656E6469646F006E756D59
:1019980065726F2064652070756C736163696F6E22
:1019A80065733A2000426F746F6E206170616761E1
:0419B800646F000058
:00000001FF
