:020000040000FA
:100000000C9462000C948A000C948A000C948A0070
:100010000C948A000C948A000C948A000C948A0038
:100020000C948A000C948A000C948A000C948A0028
:100030000C948A000C948A000C948A000C948A0018
:100040000C94C2050C948A000C9490050C946A05DB
:100050000C948A000C948A000C948A000C948A00F8
:100060000C948A000C948A000000000024002700F1
:100070002A0000000000250028002B0000000000DE
:1000800023002600290004040404040404040202DA
:100090000202020203030303030301020408102007
:1000A0004080010204081020010204081020000012
:1000B0000008000201000003040700000000000027
:1000C00000000C0611241FBECFEFD8E0DEBFCDBF6D
:1000D00012E0A0E0B1E0EAECF8E102C005900D9278
:1000E000AA36B107D9F723E0AAE6B2E001C01D9213
:1000F000AE32B207E1F710E0C2E6D0E004C02197CB
:10010000FE010E945D0CC136D107C9F70E94570657
:100110000C94630C0C940000AF92BF92CF92DF92CC
:10012000EF92FF920F931F93CF93DF936C017B01AC
:100130008B01040F151FEB015E01AE18BF08C0173D
:10014000D10759F06991D601ED91FC910190F081B0
:10015000E02DC6010995892B79F7C501DF91CF9173
:100160001F910F91FF90EF90DF90CF90BF90AF90D5
:100170000895FC01538D448D252F30E0842F90E0AD
:10018000821B930B541710F0CF9608950197089592
:10019000FC01918D828D981761F0A28DAE0FBF2F5B
:1001A000B11D5D968C91928D9F5F9F73928F90E0B1
:1001B00008958FEF9FEF0895FC01918D828D981720
:1001C00031F0828DE80FF11D858D90E008958FEF5D
:1001D0009FEF0895FC01918D228D892F90E0805C26
:1001E0009F4F821B91098F739927089589E792E0A9
:1001F0000E94EA0021E0892B09F420E0822F089573
:1002000080E090E0892B29F00E94F60081110C9487
:1002100000000895FC01A48DA80FB92FB11DA35AA9
:10022000BF4F2C91848D90E001968F739927848F16
:10023000A689B7892C93A089B1898C918370806439
:100240008C93938D848D981306C00288F389E02DDA
:1002500080818F7D80830895EF92FF920F931F938B
:10026000CF93DF93EC0181E0888F9B8D8C8D981369
:100270001AC0E889F989808185FF15C09FB7F89475
:10028000EE89FF896083E889F989808183708064C1
:1002900080839FBF81E090E0DF91CF911F910F910C
:1002A000FF90EF900895F62E0B8D10E00F5F1F4F1B
:1002B0000F731127E02E8C8D8E110CC00FB607FC2A
:1002C000FACFE889F989808185FFF5CFCE010E94B8
:1002D0000A01F1CFEB8DEC0FFD2FF11DE35AFF4F1B
:1002E000F0829FB7F8940B8FEA89FB898081806246
:1002F000CFCFCF93DF93EC01888D8823B9F0AA8903
:10030000BB89E889F9898C9185FD03C0808186FDD0
:100310000DC00FB607FCF7CF8C9185FFF2CF80811F
:1003200085FFEDCFCE010E940A01E9CFDF91CF9189
:100330000895833081F028F4813099F08230A9F05B
:1003400008958730A9F08830C9F08430B1F48091E5
:1003500080008F7D03C0809180008F778093800024
:10036000089584B58F7784BD089584B58F7DFBCFC4
:100370008091B0008F778093B00008958091B00095
:100380008F7DF9CF1F93CF93DF93282F30E0F901B2
:10039000E255FF4F8491F901E656FF4FD491F901E0
:1003A000EA57FF4FC491CC23A9F0162F81110E9468
:1003B0009901EC2FF0E0EE0FFF1FEE58FF4FA591D3
:1003C000B4918FB7F894EC91111108C0D095DE2349
:1003D000DC938FBFDF91CF911F910895DE2BF8CF73
:1003E000CF93DF9390E0FC01E656FF4F24918A57AC
:1003F0009F4FFC0184918823D1F090E0880F991FD2
:10040000FC01E859FF4FA591B491FC01EE58FF4F54
:10041000C591D49161110EC09FB7F8948C91E22FD1
:10042000E0958E238C932881E223E8839FBFDF91A0
:10043000CF9108958FB7F894EC91E22BEC938FBF96
:10044000F6CF2091000190E4299F900111248E5055
:10045000822B80937C0080917A00806480937A0064
:1004600080917A0086FDFCCF809178009091790090
:1004700008953FB7F89480916B0290916C02A0911F
:100480006D02B0916E0226B5A89B05C02F3F19F0F2
:100490000196A11DB11D3FBFBA2FA92F982F882704
:1004A000BC01CD01620F711D811D911D42E0660FDF
:1004B000771F881F991F4A95D1F708958F929F92B1
:1004C000AF92BF92CF92DF92EF92FF924B015C010D
:1004D0000E9439026B017C010E9439026C197D096E
:1004E0008E099F09683E734081059105A8F321E0BC
:1004F000821A9108A108B10888EEC80E83E0D81EC0
:10050000E11CF11C81149104A104B10429F7FF90AE
:10051000EF90DF90CF90BF90AF909F908F90089515
:10052000089590E080E00895CF93DF93EC0160E0C0
:100530008E810E94C20161E08E810E94C20160E052
:100540008E810E94C2018BE891E00197F1F7DF9163
:10055000CF910895CF92DF92EF92FF920F931F9366
:10056000CF93DF936C017C0187E0E80EF11CD0E0B3
:10057000C0E0062F10E0B8010C2E02C075956795FB
:100580000A94E2F76170F70181917F010E94C20134
:100590002196C430D10579F7C601DF91CF911F9123
:1005A0000F91FF90EF90DF90CF900C949402CF9238
:1005B000DF92EF92FF920F931F93CF93DF93EC01A3
:1005C000F62E642F8C810E94C2018D818F3F19F01D
:1005D00060E00E94C2010F2D10E08F8584FF25C0CE
:1005E0006E0187E0C80ED11CF12CE12CB8010E2C55
:1005F00002C0759567950A94E2F76170F6018191E2
:100600006F010E94C201FFEFEF1AFF0A88E0E816AF
:10061000F10461F7CE01DF91CF911F910F91FF900F
:10062000EF90DF90CF900C949402B80184E0759520
:1006300067958A95E1F7CE010E94AA026F2DCE013F
:10064000DF91CF911F910F91FF90EF90DF90CF90AE
:100650000C94AA0240E0682F86E193E00C94D70244
:10066000CF93DF93613029F09091250398609093A8
:1006700025036093290310922A0390E490932B039F
:1006800080932C03805C80932D0361E080911A039A
:100690000E94F00180911B038F3F19F061E00E94DE
:1006A000F00161E080911C030E94F001C6E1D3E0FB
:1006B0009E01265133408091250384FD0BC084E0C8
:1006C00090E021962817390744F461E08E810E945A
:1006D000F001EECF88E090E0F4CF8BE39DE001974E
:1006E000F1F760E080911A030E94C20160E08091FE
:1006F0001C030E94C20180911B038F3F19F060E030
:100700000E94C2018091250384FD39C063E086E127
:1007100093E00E94AA02CBE4D6E4CE010197F1F760
:1007200063E086E193E00E94AA022197F1F763E07B
:1007300086E193E00E94AA0283E592E00197F1F737
:1007400062E086E193E00E94AA0280912503806224
:100750000E942A0384E0809326038CE00E942A03EF
:1007600081E00E942A038BE39FE10197F1F782E089
:100770008093270386E0DF91CF910C942A03806257
:100780000E942A038BE496E40197F1F780912503F8
:1007900080620E942A0383E592E00197F1F780913D
:1007A000250380620E942A03D0CF909129038917E4
:1007B00010F08FEF890FE82FF0E0EA5EFC4F84899C
:1007C00080680C942A0341E00E94D70281E090E007
:1007D0000895FB0101900020E9F73197AF01461B16
:1007E000570BDC01ED91FC910280F381E02D09941F
:1007F0008F929F92AF92BF92EF92FF920F931F93AF
:10080000CF93DF93CDB7DEB7A1970FB6F894DEBFD5
:100810000FBECDBF7C01FA01CB0119A2223008F432
:100820002AE08E010F5D1F4F822E912CB12CA12C3E
:10083000BF01A50194010E941C0CF901CA016A3094
:100840000CF5605DD8016E938D01232B242B252B95
:1008500079F790E080E0109721F0BD01C7010E9478
:10086000E903A1960FB6F894DEBF0FBECDBFDF91AE
:10087000CF911F910F91FF90EF90BF90AF909F90FD
:100880008F900895695CDECFCF92DF92EF92FF9256
:10089000CF93DF936B017C016DE289E792E00E94C8
:1008A0002C01EC0144275527BA014C195D096E094A
:1008B0007F092AE089E792E00E94F8038C0F9D1FD0
:1008C000DF91CF91FF90EF90DF90CF900895CF937D
:1008D000DF93BC0189E792E00E94E903EC016BE43D
:1008E00071E089E792E00E94E9038C0F9D1FDF9180
:1008F000CF9108952F923F924F925F926F927F9285
:100900008F929F92AF92BF92CF92DF92EF92FF921F
:100910001F93CF93DF93EC016A017B01722EAB0131
:100920009601CB01B6010E94020C6EE471E08111C8
:1009300026C046015701E894B7F82FEF3FEF4FE785
:100940005FE7C501B4010E94020C81110CC02FEFBA
:100950003FEF4FE75FE7C501B4010E94EB0962E595
:1009600071E0181664F02FEF3FEF4FE75FE4C70127
:10097000B6010E944A0B1816B4F466E571E0CE0188
:10098000DF91CF911F91FF90EF90DF90CF90BF90BC
:10099000AF909F908F907F906F905F904F903F901F
:1009A0002F900C94E9032FEF3FEF4FE75FECC70167
:1009B000B6010E94EB0987FDE0CF20E030E0A901FD
:1009C000C701B6010E94EB09312C212C87FF0DC015
:1009D000E881F9810190F081E02D6DE2CE01099569
:1009E0001C01F7FAF094F7F8F09410E060E070E082
:1009F00080E09FE3711641F020E030E040E251E4F6
:100A00000E94F0091F5FF6CFA70196010E947F099F
:100A10002B013C010E94690A4B015C012AE0BC01E8
:100A2000A401CE010E94F8037C01E20CF31C112307
:100A3000E1F1C501B4010E94980A9B01AC01C30118
:100A4000B2010E947E094B015C01E881F9810190AD
:100A5000F081E02D6EE2CE010995E80EF91E1150ED
:100A600020F120E030E040E251E4C501B4010E94F1
:100A70004F0B2B013C010E94690A4B01B12CA12CA8
:100A80002AE0B501A401CE010E94F803E80EF91E88
:100A9000C501B4010E94980A9B01AC01C301B201D7
:100AA0000E947E094B015C01DACFC701DF91CF9133
:100AB0001F91FF90EF90DF90CF90BF90AF909F90ED
:100AC0008F907F906F905F904F903F902F90089500
:100AD0000C94E9031F920F920FB60F9211242F93DB
:100AE0003F934F935F936F937F938F939F93AF93B6
:100AF000BF93EF93FF9389E792E00E940A01FF9171
:100B0000EF91BF91AF919F918F917F916F915F9185
:100B10004F913F912F910F900FBE0F901F901895FE
:100B20001F920F920FB60F9211242F938F939F93C2
:100B3000EF93FF93E0918902F0918A028081E09126
:100B40008F02F091900282FD1BC0908180919202F1
:100B50008F5F8F7320919302821741F0E091920290
:100B6000F0E0E758FD4F958F80939202FF91EF914F
:100B70009F918F912F910F900FBE0F901F901895FE
:100B80008081F4CF1F920F920FB60F9211242F93F2
:100B90003F938F939F93AF93BF9380916F029091F8
:100BA0007002A0917102B091720230916A0223E04A
:100BB000230F2D3758F50196A11DB11D20936A0210
:100BC00080936F0290937002A0937102B0937202AF
:100BD00080916B0290916C02A0916D02B0916E02B7
:100BE0000196A11DB11D80936B0290936C02A0939E
:100BF0006D02B0936E02BF91AF919F918F913F9123
:100C00002F910F900FBE0F901F90189526E8230F7D
:100C10000296A11DB11DD2CFE9E7F2E01382128244
:100C200088EE93E0A0E0B0E084839583A683B78349
:100C300081E391E09183808385EC90E095878487C0
:100C400084EC90E09787868780EC90E0918B808B96
:100C500081EC90E0938B828B82EC90E0958B848B7F
:100C600086EC90E0978B868B118E128E138E148EED
:100C7000E6E1F3E01382128283E491E091838083C2
:100C800088E084838FEF858389E0868384E087838F
:100C900085E0808786E0818787E0828713861486D7
:100CA00015861686178661E080E10C943003CF9399
:100CB000DF93CDB7DEB764970FB6F894DEBF0FBEF3
:100CC000CDBF789484B5826084BD84B5816084BDD5
:100CD00085B5826085BD85B5816085BD80916E00DA
:100CE000816080936E00109281008091810082600B
:100CF0008093810080918100816080938100809148
:100D000080008160809380008091B1008460809336
:100D1000B1008091B00081608093B00080917A0032
:100D2000846080937A0080917A00826080937A0058
:100D300080917A00816080937A0080917A00806847
:100D400080937A001092C10060E082E00E94F0017E
:100D500061E08DE00E94F00161E08CE00E94F00112
:100D600061E08BE00E94F00161E08BE00E94C20133
:100D700064E084E10E943003E0918902F0918A02EC
:100D800082E08083E0918502F09186021082E091FA
:100D90008702F09188028FEC808310929102E0919B
:100DA0008D02F0918E0286E08083E0918B02F091BB
:100DB0008C02808180618083E0918B02F0918C02B3
:100DC000808188608083E0918B02F0918C02808129
:100DD00080688083E0918B02F0918C0280818F7D0E
:100DE000808383E0809300010BE31FE138E8232E2A
:100DF00030E0332E8FB7F89440906F02509070021D
:100E000060907102709072028FBFF12CE12C812CE6
:100E1000912C54012FB7F89480916F029091700239
:100E2000A0917102B09172022FBF84199509A60991
:100E3000B709843F9140A105B10558F58EE00E94A5
:100E40002102BC01990F880B990B0E949A0A29E094
:100E500030EF4CE85AE30E944F0B20E030E040EFC7
:100E600051E40E944F0B9B01AC010E944F0B9B0170
:100E7000AC01C501B4010E947F094B015C018FEFF9
:100E8000E81AF80A61E070E080E090E00E945E02FB
:100E9000C1CFA5019401C501B4010E947F094B0196
:100EA0005C01B701FF0C880B990B0E949A0A9B0109
:100EB000AC01C501B4010E94F0090E94C20B6D870C
:100EC0007E878F87988B20E030E04CE553E40E94CA
:100ED0004F0B2B013C0120E030E04AE754E40E9434
:100EE000F0096D837E838F8398872FB7F894609184
:100EF0006F027091700280917102909172022FBF07
:100F000028EE33E040E050E00E943E0CCA01B901F7
:100F10000E949A0AA30192010E944F0B20E03AEB33
:100F20004BE55AE40E94F00969837A838B839C83A2
:100F30008FE00E9421026C01990FEE08FF08C701A3
:100F4000B6010E949A0A2AE038E240EA5BE30E9476
:100F50004F0B69877A878B879C8720E030E040ECD5
:100F600050E40E944F0B0E94620A698B7A8B8B8B34
:100F70009C8B89899A8901978B30910508F099C1DA
:100F8000880F991F880F991FFC01EF5FFE4F80802B
:100F90009180A280B380A501940169817A818B81BF
:100FA0009C810E944A0B87FFA4C181E00E942A0312
:100FB000C8010197F1F780E00E94D5036AE571E06E
:100FC00086E193E00E94680581E00E94D5036FE509
:100FD00072E086E193E00E94680522E049815A812F
:100FE0006B817C8186E193E00E947A046EE671E079
:100FF00086E193E00E94680582E00E94D50364E7E1
:1010000071E086E193E00E94680522E04D815E81F7
:101010006F81788586E193E00E947A046EE771E043
:1010200086E193E00E94680583E00E94D50363E8AF
:1010300071E086E193E00E94680522E0B501A40119
:1010400086E193E00E947A046EE671E086E193E027
:101050000E94680568EE73E080E090E00E945E0206
:101060008EE891E00E94670461EA71E089E792E00E
:101070000E946805F7FE26C1C701B6010E9444041C
:101080006BE471E089E792E00E94E9036DEB71E0A7
:1010900089E792E00E94680522E049855A856B85C0
:1010A0007C8589E792E00E947A0464ED71E089E72B
:1010B00092E00E94680587E492E00E94670466ED72
:1010C00071E089E792E00E94680522E0B501A40181
:1010D00089E792E00E947A0469EE71E089E792E084
:1010E0000E94680587E492E00E9467046DEE71E05B
:1010F00089E792E00E946805E989FA89AF01FF0F4C
:10110000660B770B77FFE6C0CB01BA010E9444045F
:1011100087E492E00E94670487E492E00E946704FB
:101120008CE092E00E94670468E272E089E792E056
:101130000E94680522E04D855E856F85788989E784
:1011400092E00E947A0466E372E089E792E00E94EE
:10115000680587E492E00E94670468E372E089E72B
:1011600092E00E94680522E0B301A20189E792E0C3
:101170000E947A046CE572E089E792E00E946805BB
:1011800087E492E00E94670469E472E089E792E0F4
:101190000E94680522E04D815E816F81788589E734
:1011A00092E00E947A046BE572E089E792E00E9487
:1011B000680587E492E00E9467046EE572E089E7C3
:1011C00092E00E94680522E049815A816B817C810E
:1011D00089E792E00E947A0469EE71E089E792E083
:1011E0000E94680587E492E00E94670487E492E029
:1011F0000E94670468EE73E080E090E00E945E0267
:10120000E0EBF0E08491ECE9F0E0F490F101E4909F
:10121000EE2009F465C081110E949901EE2DF0E0E5
:10122000EE0FFF1FE458FF4FA591B4918C91F82267
:1012300091E080E009F490E0E92EF82EF092780237
:10124000E092770280917502909176028E159F054B
:1012500099F0F1E0EF16F10449F480917302909156
:1012600074020196909374028093730262E370E0BB
:1012700080E090E00E945E02F0927602E0927502B9
:101280008091730280FD2FC061E08DE00E94C20159
:1012900060E08CE00E94C20180E090E0892B09F4BC
:1012A000A9CD0E94F600882309F4A4CD0E94000075
:1012B000A1CD95E8892E9BEE992E99E8A92E91E46F
:1012C000B92E69CE2AE0B701A60189E792E00E9413
:1012D000F803D6CE2AE089E792E00E94F80318CFFF
:1012E000F12CE12CABCF60E08DE00E94C20161E007
:1012F000D0CF60E08BE00E94C20157CE5058BB2790
:10130000AA270E9496090C94100B0E94020B38F039
:101310000E94090B20F039F49F3F19F426F40C9435
:10132000FF0A0EF4E095E7FB0C94F90AE92F0E94FE
:10133000210B58F3BA17620773078407950720F04B
:1013400079F4A6F50C94430B0EF4E0950B2EBA2F0E
:10135000A02D0B01B90190010C01CA01A0011124BB
:10136000FF27591B99F0593F50F4503E68F11A1667
:10137000F040A22F232F342F4427585FF3CF4695F8
:1013800037952795A795F0405395C9F77EF41F161A
:10139000BA0B620B730B840BBAF09150A1F0FF0FE4
:1013A000BB1F661F771F881FC2F70EC0BA0F621FD0
:1013B000731F841F48F4879577956795B795F795C0
:1013C0009E3F08F0B0CF9395880F08F09927EE0F55
:1013D0009795879508950E94D50A08F481E00895AD
:1013E0000E94040A0C94100B0E94090B58F00E94F2
:1013F000020B40F029F45F3F29F00C94F90A5111D7
:101400000C94440B0C94FF0A0E94210B68F399235F
:10141000B1F3552391F3951B550BBB27AA276217F0
:101420007307840738F09F5F5F4F220F331F441FFD
:10143000AA1FA9F335D00E2E3AF0E0E832D0915031
:101440005040E695001CCAF72BD0FE2F29D0660F1E
:10145000771F881FBB1F261737074807AB07B0E861
:1014600009F0BB0B802DBF01FF2793585F4F3AF067
:101470009E3F510578F00C94F90A0C94440B5F3FA1
:10148000E4F3983ED4F3869577956795B795F795ED
:101490009F5FC9F7880F911D9695879597F90895D5
:1014A000E1E0660F771F881FBB1F62177307840771
:1014B000BA0720F0621B730B840BBA0BEE1F88F780
:1014C000E09508950E94690A6894B1110C94440B48
:1014D00008950E94290B88F09F5798F0B92F9927FB
:1014E000B751B0F0E1F0660F771F881F991F1AF00F
:1014F000BA95C9F714C0B13091F00E94430BB1E026
:1015000008950C94430B672F782F8827B85F39F024
:10151000B93FCCF3869577956795B395D9F73EF4A7
:1015200090958095709561957F4F8F4F9F4F08954F
:10153000E89409C097FB3EF490958095709561956D
:101540007F4F8F4F9F4F9923A9F0F92F96E9BB2723
:101550009395F695879577956795B795F111F8CF9F
:10156000FAF4BB0F11F460FF1BC06F5F7F4F8F4F0A
:101570009F4F16C0882311F096E911C0772321F000
:101580009EE8872F762F05C0662371F096E8862F98
:1015900070E060E02AF09A95660F771F881FDAF7EF
:1015A000880F9695879597F90895990F0008550F1C
:1015B000AA0BE0E8FEEF16161706E807F907C0F0D9
:1015C00012161306E407F50798F0621B730B840BE1
:1015D000950B39F40A2661F0232B242B252B21F4BB
:1015E00008950A2609F4A140A6958FEF811D811D5B
:1015F000089597F99F6780E870E060E008959FEF95
:1016000080EC089500240A94161617061806090699
:10161000089500240A941216130614060506089568
:10162000092E0394000C11F4882352F0BB0F40F4F0
:10163000BF2B11F460FF04C06F5F7F4F8F4F9F4F30
:10164000089557FD9058440F551F59F05F3F71F0B2
:101650004795880F97FB991F61F09F3F79F0879519
:101660000895121613061406551FF2CF4695F1DFA2
:1016700008C0161617061806991FF1CF8695710532
:10168000610508940895E894BB2766277727CB0166
:1016900097F908950E94D50A08F48FEF08950E94E3
:1016A000620B0C94100B0E94020B38F00E94090B85
:1016B00020F0952311F00C94F90A0C94FF0A1124E0
:1016C0000C94440B0E94210B70F3959FC1F3950F6E
:1016D00050E0551F629FF001729FBB27F00DB11DB6
:1016E000639FAA27F00DB11DAA1F649F6627B00D46
:1016F000A11D661F829F2227B00DA11D621F739F2F
:10170000B00DA11D621F839FA00D611D221F749F3C
:101710003327A00D611D231F849F600D211D822F83
:10172000762F6A2F11249F5750409AF0F1F08823AA
:101730004AF0EE0FFF1FBB1F661F771F881F9150D7
:101740005040A9F79E3F510580F00C94F90A0C9483
:10175000440B5F3FE4F3983ED4F386957795679505
:10176000B795F795E7959F5FC1F7FE2B880F911D01
:101770009695879597F9089519F416F40C94FF0A35
:101780000C94070C0E94290BB8F39923C9F3B6F304
:101790009F57550B87FF0E94150C0024A0E640EAD6
:1017A000900180585695979528F4805C660F771FB6
:1017B000881F20F026173707480730F4621B730B89
:1017C000840B202931294A2BA695179407942025AC
:1017D00031254A2758F7660F771F881F20F02617F4
:1017E0003707480730F4620B730B840B200D311D53
:1017F000411DA09581F7B901842F9158880F9695C6
:10180000879508950E94D50A880B990B08959F3FEC
:1018100031F0915020F4879577956795B795880FAB
:10182000911D9695879597F9089591505040660FB0
:10183000771F881FD2F70895A1E21A2EAA1BBB1B9F
:10184000FD010DC0AA1FBB1FEE1FFF1FA217B3078C
:10185000E407F50720F0A21BB30BE40BF50B661FA2
:10186000771F881F991F1A9469F760957095809566
:1018700090959B01AC01BD01CF010895052E97FB0A
:101880001EF400940E94550C57FD07D00E941C0CBA
:1018900007FC03D04EF40C94550C509540953095B0
:1018A00021953F4F4F4F5F4F0895909580957095CC
:1018B00061957F4F8F4F9F4F0895EE0FFF1F05904B
:1018C000F491E02D0994F894FFCF015C8F423F5CC6
:1018D0008F423F8FC2753FB81E853FF6283C404877
:1018E000E19A40E17AF4403D0A2741A4704D410A53
:1018F000D7734185EB8941000000002C018C00B9B1
:10190000007901EA00C800DC0000000000E3038C5D
:1019100000910290020D0A006E616E00696E660011
:101920006F7666004D45444943494F4E204445205B
:10193000434F4E53554D4F00206B576820002041B8
:10194000637475616C3A2000206B572000204DC3F2
:10195000A178696D6F3A2000204441544F532041D3
:101960004E454D4F4D4554524F2000202056616C3E
:101970006F722064656C2073656E736F7220766978
:10198000656E746F3A20002020566F6C74616A6532
:1019900020616E656D6F6D6574726F3A2000560040
:1019A0002020506F74656E63696120636F72746587
:1019B0003A20006B57680020204C612076656C6FE0
:1019C00063696461642064656C207669656E746F18
:1019D0002065733A2000204441544F532053454E14
:1019E000534F5220444520434F525249454E54458F
:1019F00020002020436F727269656E74653A200082
:101A000041002020506F74656E636961202857295A
:101A10003A20002020506F74656E63696120286B46
:101A200057293A20006B5700202044696172696F82
:041A30003A20000058
:107E0000112484B714BE81FFF0D085E080938100F7
:107E100082E08093C00088E18093C10086E0809377
:107E2000C20080E18093C4008EE0C9D0259A86E02C
:107E300020E33CEF91E0309385002093840096BBD3
:107E4000B09BFECF1D9AA8958150A9F7CC24DD24C4
:107E500088248394B5E0AB2EA1E19A2EF3E0BF2EE7
:107E6000A2D0813461F49FD0082FAFD0023811F036
:107E7000013811F484E001C083E08DD089C08234E0
:107E800011F484E103C0853419F485E0A6D080C0E4
:107E9000853579F488D0E82EFF2485D0082F10E0AE
:107EA000102F00270E291F29000F111F8ED06801E7
:107EB0006FC0863521F484E090D080E0DECF843638
:107EC00009F040C070D06FD0082F6DD080E0C81688
:107ED00080E7D80618F4F601B7BEE895C0E0D1E017
:107EE00062D089930C17E1F7F0E0CF16F0E7DF06D8
:107EF00018F0F601B7BEE89568D007B600FCFDCFD4
:107F0000A601A0E0B1E02C9130E011968C91119780
:107F100090E0982F8827822B932B1296FA010C0160
:107F200087BEE89511244E5F5F4FF1E0A038BF0790
:107F300051F7F601A7BEE89507B600FCFDCF97BE46
:107F4000E89526C08437B1F42ED02DD0F82E2BD052
:107F50003CD0F601EF2C8F010F5F1F4F84911BD097
:107F6000EA94F801C1F70894C11CD11CFA94CF0C13
:107F7000D11C0EC0853739F428D08EE10CD085E9AC
:107F80000AD08FE07ACF813511F488E018D01DD067
:107F900080E101D065CF982F8091C00085FFFCCF94
:107FA0009093C60008958091C00087FFFCCF809118
:107FB000C00084FD01C0A8958091C6000895E0E648
:107FC000F0E098E1908380830895EDDF803219F02E
:107FD00088E0F5DFFFCF84E1DECF1F93182FE3DFCA
:107FE0001150E9F7F2DF1F91089580E0E8DFEE27F6
:047FF000FF270994CA
:027FFE00040479
:00000001FF
