:020000040000FA
:100000000C9462000C948A000C948A000C948A0070
:100010000C948A000C948A000C948A000C948A0038
:100020000C948A000C948A000C948A000C948A0028
:100030000C948A000C948A000C948A000C948A0018
:100040000C9474050C948A000C9442050C941C05C5
:100050000C948A000C948A000C948A000C948A00F8
:100060000C948A000C948A000000000024002700F1
:100070002A0000000000250028002B0000000000DE
:1000800023002600290004040404040404040202DA
:100090000202020203030303030301020408102007
:1000A0004080010204081020010204081020000012
:1000B0000008000201000003040700000000000027
:1000C0000000BE0511241FBECFEFD8E0DEBFCDBFBC
:1000D00011E0A0E0B1E0E4E2F7E102C005900D928A
:1000E000AC3BB107D9F722E0ACEBB1E001C01D9207
:1000F000A038B207E1F710E0C2E6D0E004C02197D3
:10010000FE010E948A0BC136D107C9F70E94090679
:100110000C94900B0C940000AF92BF92CF92DF92A0
:10012000EF92FF920F931F93CF93DF936C017B01AC
:100130008B01040F151FEB015E01AE18BF08C0173D
:10014000D10759F06991D601ED91FC910190F081B0
:10015000E02DC6010995892B79F7C501DF91CF9173
:100160001F910F91FF90EF90DF90CF90BF90AF90D5
:100170000895FC01538D448D252F30E0842F90E0AD
:10018000821B930B541710F0CF9608950197089592
:10019000FC01918D828D981761F0A28DAE0FBF2F5B
:1001A000B11D5D968C91928D9F5F9F73928F90E0B1
:1001B00008958FEF9FEF0895FC01918D828D981720
:1001C00031F0828DE80FF11D858D90E008958FEF5D
:1001D0009FEF0895FC01918D228D892F90E0805C26
:1001E0009F4F821B91098F73992708958BEC91E0A3
:1001F0000E94EA0021E0892B09F420E0822F089573
:1002000080E090E0892B29F00E94F60081110C9487
:1002100000000895FC01A48DA80FB92FB11DA35AA9
:10022000BF4F2C91848D90E001968F739927848F16
:10023000A689B7892C93A089B1898C918370806439
:100240008C93938D848D981306C00288F389E02DDA
:1002500080818F7D80830895EF92FF920F931F938B
:10026000CF93DF93EC0181E0888F9B8D8C8D981369
:100270001AC0E889F989808185FF15C09FB7F89475
:10028000EE89FF896083E889F989808183708064C1
:1002900080839FBF81E090E0DF91CF911F910F910C
:1002A000FF90EF900895F62E0B8D10E00F5F1F4F1B
:1002B0000F731127E02E8C8D8E110CC00FB607FC2A
:1002C000FACFE889F989808185FFF5CFCE010E94B8
:1002D0000A01F1CFEB8DEC0FFD2FF11DE35AFF4F1B
:1002E000F0829FB7F8940B8FEA89FB898081806246
:1002F000CFCFCF93DF93EC01888D8823B9F0AA8903
:10030000BB89E889F9898C9185FD03C0808186FDD0
:100310000DC00FB607FCF7CF8C9185FFF2CF80811F
:1003200085FFEDCFCE010E940A01E9CFDF91CF9189
:100330000895833081F028F4813099F08230A9F05B
:1003400008958730A9F08830C9F08430B1F48091E5
:1003500080008F7D03C0809180008F778093800024
:10036000089584B58F7784BD089584B58F7DFBCFC4
:100370008091B0008F778093B00008958091B00095
:100380008F7DF9CF1F93CF93DF93282F30E0F901B2
:10039000E255FF4F8491F901E656FF4FD491F901E0
:1003A000EA57FF4FC491CC23A9F0162F81110E9468
:1003B0009901EC2FF0E0EE0FFF1FEE58FF4FA591D3
:1003C000B4918FB7F894EC91111108C0D095DE2349
:1003D000DC938FBFDF91CF911F910895DE2BF8CF73
:1003E000CF93DF9390E0FC01E656FF4F24918A57AC
:1003F0009F4FFC0184918823D1F090E0880F991FD2
:10040000FC01E859FF4FA591B491FC01EE58FF4F54
:10041000C591D49161110EC09FB7F8948C91E22FD1
:10042000E0958E238C932881E223E8839FBFDF91A0
:10043000CF9108958FB7F894EC91E22BEC938FBF96
:10044000F6CF3FB7F8948091BD019091BE01A09185
:10045000BF01B091C00126B5A89B05C02F3F19F080
:100460000196A11DB11D3FBFBA2FA92F982F882734
:10047000BC01CD01620F711D811D911D42E0660F0F
:10048000771F881F991F4A95D1F708958F929F92E1
:10049000AF92BF92CF92DF92EF92FF924B015C013D
:1004A0000E9421026B017C010E9421026C197D09CE
:1004B0008E099F09683E734081059105A8F321E0EC
:1004C000821A9108A108B10888EEC80E83E0D81EF0
:1004D000E11CF11C81149104A104B10429F7FF90DF
:1004E000EF90DF90CF90BF90AF909F908F90089546
:1004F000089590E080E00895CF93DF93EC0160E0F1
:100500008E810E94C20161E08E810E94C20160E082
:100510008E810E94C2018BE891E00197F1F7DF9193
:10052000CF910895CF92DF92EF92FF920F931F9396
:10053000CF93DF936C017C0187E0E80EF11CD0E0E3
:10054000C0E0062F10E0B8010C2E02C0759567952B
:100550000A94E2F76170F70181917F010E94C20164
:100560002196C430D10579F7C601DF91CF911F9153
:100570000F91FF90EF90DF90CF900C947C02CF9280
:10058000DF92EF92FF920F931F93CF93DF93EC01D3
:10059000F62E642F8C810E94C2018D818F3F19F04D
:1005A00060E00E94C2010F2D10E08F8584FF25C0FE
:1005B0006E0187E0C80ED11CF12CE12CB8010E2C85
:1005C00002C0759567950A94E2F76170F601819112
:1005D0006F010E94C201FFEFEF1AFF0A88E0E816E0
:1005E000F10461F7CE01DF91CF911F910F91FF9040
:1005F000EF90DF90CF900C947C02B80184E0759569
:1006000067958A95E1F7CE010E9492026F2DCE0187
:10061000DF91CF911F910F91FF90EF90DF90CF90DE
:100620000C94920240E0682F88E692E00C94BF029E
:10063000CF93DF93613029F0909177029860909387
:10064000770260937B0210927C0290E490937D028B
:1006500080937E02805C80937F0261E080916C02D7
:100660000E94F00180916D028F3F19F061E00E94BD
:10067000F00161E080916E020E94F001C8E6D2E0D4
:100680009E01285632408091770284FD0BC084E0A1
:1006900090E021962817390744F461E08E810E948A
:1006A000F001EECF88E090E0F4CF8BE39DE001977E
:1006B000F1F760E080916C020E94C20160E08091DD
:1006C0006E020E94C20180916D028F3F19F060E0BE
:1006D0000E94C2018091770284FD39C063E088E600
:1006E00092E00E949202CBE4D6E4CE010197F1F7AA
:1006F00063E088E692E00E9492022197F1F763E0BE
:1007000088E692E00E94920283E592E00197F1F779
:1007100062E088E692E00E94920280917702806215
:100720000E94120384E0809378028CE00E941203FE
:1007300081E00E9412038BE39FE10197F1F782E0D1
:100740008093790286E0DF91CF910C94120380624E
:100750000E9412038BE496E40197F1F780917702EF
:1007600080620E94120383E592E00197F1F7809185
:10077000770280620E941203D0CF90917B0289178A
:1007800010F08FEF890FE82FF0E0E859FD4F8489D2
:1007900080680C94120341E00E94BF0281E090E067
:1007A0000895FB0101900020E9F73197AF01461B46
:1007B000570BDC01ED91FC910280F381E02D09944F
:1007C0008F929F92AF92BF92EF92FF920F931F93DF
:1007D000CF93DF93CDB7DEB7A1970FB6F894DEBF06
:1007E0000FBECDBF7C01FA01CB0119A2223008F463
:1007F0002AE08E010F5D1F4F822E912CB12CA12C6F
:10080000BF01A50194010E94490BF901CA016A3098
:100810000CF5605DD8016E938D01232B242B252BC5
:1008200079F790E080E0109721F0BD01C7010E94A8
:10083000D103A1960FB6F894DEBF0FBECDBFDF91F6
:10084000CF911F910F91FF90EF90BF90AF909F902D
:100850008F900895695CDECF2F923F924F925F9206
:100860006F927F928F929F92AF92BF92CF92DF92C0
:10087000EF92FF921F93CF93DF93EC016A017B010C
:10088000722EAB019601CB01B6010E942F0B6FE1D6
:1008900071E0811126C046015701E894B7F82FEFA7
:1008A0003FEF4FE75FE7C501B4010E942F0B8111B5
:1008B0000CC02FEF3FEF4FE75FE7C501B4010E9487
:1008C0001F0963E271E0181664F02FEF3FEF4FE766
:1008D0005FE4C701B6010E94770A1816B4F467E214
:1008E00071E0CE01DF91CF911F91FF90EF90DF90EB
:1008F000CF90BF90AF909F908F907F906F905F90C0
:100900004F903F902F900C94D1032FEF3FEF4FE784
:100910005FECC701B6010E941F0987FDE0CF20E010
:1009200030E0A901C701B6010E941F09312C212C1A
:1009300087FF0DC0E881F9810190F081E02D6DE223
:10094000CE0109951C01F7FAF094F7F8F09410E045
:1009500060E070E080E09FE3711641F020E030E05D
:1009600040E251E40E9424091F5FF6CFA7019601DF
:100970000E94B3082B013C010E9496094B015C01C7
:100980002AE0BC01A401CE010E94E0037C01E20C3C
:10099000F31C1123E1F1C501B4010E94C5099B01BB
:1009A000AC01C301B2010E94B2084B015C01E881B5
:1009B000F9810190F081E02D6EE2CE010995E80EFB
:1009C000F91E115020F120E030E040E251E4C50171
:1009D000B4010E947C0A2B013C010E9496094B0144
:1009E000B12CA12C2AE0B501A401CE010E94E003A4
:1009F000E80EF91EC501B4010E94C5099B01AC01B6
:100A0000C301B2010E94B2084B015C01DACFC701F9
:100A1000DF91CF911F91FF90EF90DF90CF90BF902B
:100A2000AF909F908F907F906F905F904F903F908E
:100A30002F9008950C94D1031F920F920FB60F922E
:100A400011242F933F934F935F936F937F938F93D3
:100A50009F93AF93BF93EF93FF938BEC91E00E9432
:100A60000A01FF91EF91BF91AF919F918F917F917B
:100A70006F915F914F913F912F910F900FBE0F900B
:100A80001F9018951F920F920FB60F9211242F935B
:100A90008F939F93EF93FF93E091DB01F091DC0143
:100AA0008081E091E101F091E20182FD1BC0908123
:100AB0008091E4018F5F8F732091E501821741F0EF
:100AC000E091E401F0E0E553FE4F958F8093E4015F
:100AD000FF91EF919F918F912F910F900FBE0F90EB
:100AE0001F9018958081F4CF1F920F920FB60F922E
:100AF00011242F933F938F939F93AF93BF93809134
:100B0000C1019091C201A091C301B091C401309183
:100B1000BC0123E0230F2D3758F50196A11DB11D0F
:100B20002093BC018093C1019093C201A093C301A3
:100B3000B093C4018091BD019091BE01A091BF010D
:100B4000B091C0010196A11DB11D8093BD0190938C
:100B5000BE01A093BF01B093C001BF91AF919F911F
:100B60008F913F912F910F900FBE0F901F9018956E
:100B700026E8230F0296A11DB11DD2CFEBECF1E0C8
:100B80001382128288EE93E0A0E0B0E08483958324
:100B9000A683B78385E091E09183808385EC90E024
:100BA0009587848784EC90E09787868780EC90E037
:100BB000918B808B81EC90E0938B828B82EC90E028
:100BC000958B848B86EC90E0978B868B118E128EA2
:100BD000138E148EE8E6F2E01382128287E191E030
:100BE0009183808388E084838FEF858389E0868387
:100BF00084E0878385E0808786E0818787E082873D
:100C00001386148615861686178661E080E10C949B
:100C10001803CF93DF9300D000D0CDB7DEB7789420
:100C200084B5826084BD84B5816084BD85B58260F1
:100C300085BD85B5816085BD80916E0081608093A2
:100C40006E0010928100809181008260809381000B
:100C5000809181008160809381008091800081601B
:100C6000809380008091B10084608093B100809176
:100C7000B00081608093B00080917A00846080939E
:100C80007A0080917A00826080937A0080917A0065
:100C9000816080937A0080917A00806880937A00E6
:100CA0001092C10060E082E00E94F00161E08DE0FE
:100CB0000E94F00161E08CE00E94F00161E08BE0B5
:100CC0000E94F00161E08BE00E94C20164E084E1D7
:100CD0000E941803E091DB01F091DC0182E0808347
:100CE000E091D701F091D8011082E091D901F09103
:100CF000DA018FEC80831092E301E091DF01F09143
:100D0000E00186E08083E091DD01F091DE018081E9
:100D100080618083E091DD01F091DE018081886057
:100D20008083E091DD01F091DE0180818068808325
:100D3000E091DD01F091DE0180818F7D808383E091
:100D4000809300010BE31FE198E8292E90E0392EF3
:100D50008FB7F8944090C1015090C2016090C301D8
:100D60007090C4018FBFF12CE12C812C912C540187
:100D70002FB7F8948091C1019091C201A091C30155
:100D8000B091C4012FBF84199509A609B709843F02
:100D90009140A105B10508F03FC080910001E0E459
:100DA0008E9FC001112480937C0080917A00806422
:100DB00080937A0080917A0086FDFCCF8091780044
:100DC00060917900762F682F072E000C880B990B05
:100DD0000E94C70929E030EF4CE85AE30E947C0AE0
:100DE00020E030E040EF51E40E947C0A9B01AC011E
:100DF0000E947C0A9B01AC01C501B4010E94B308AA
:100E00004B015C01FFEFEF1AFF0A61E070E080E048
:100E100090E00E944602ACCFA5019401C501B40147
:100E20000E94B3084B015C01B701FF0C880B990BC2
:100E30000E94C7099B01AC01C501B4010E942409AD
:100E40000E94EF0A2B013C0120E030E04CE553E426
:100E50000E947C0A6B017C0120E030E04AE754E408
:100E60000E94240969837A838B839C832FB7F8942B
:100E70006091C1017091C2018091C3019091C40140
:100E80002FBF28EE33E040E050E00E946B0BCA0118
:100E9000B9010E94C709A70196010E947C0A20E0BF
:100EA0003AEB4BE55AE40E9424094B015C012FE820
:100EB00032EC45EF5CE30E94770A87FF4EC181E088
:100EC0000E941203C8010197F1F780E00E94BD0360
:100ED0006BE271E088E692E00E941A0581E00E94D0
:100EE000BD0360E471E088E692E00E941A0522E00A
:100EF000B501A40188E692E00E942C0468E471E048
:100F000088E692E00E941A0582E00E94BD036CE42C
:100F100071E088E692E00E941A0522E0B301A20186
:100F200088E692E00E942C0467E571E088E692E092
:100F30000E941A0583E00E94BD0369E571E088E61E
:100F400092E00E941A0522E049815A816B817C81DE
:100F500088E692E00E942C0463E671E088E692E065
:100F60000E941A0568EC70E080E090E00E94460262
:100F70006CE471E08BEC91E00E941A0522E0B30171
:100F8000A2018BEC91E00E942C0467E571E08BECF0
:100F900091E00E941A0566E671E08BEC91E00E94F8
:100FA0001A0522E0B701A6018BEC91E00E942C0407
:100FB00064E671E08BEC91E00E941A0564E771E051
:100FC0008BEC91E00E941A0522E0B701A6018BECA0
:100FD00091E00E942C0463E671E08BEC91E00E94AA
:100FE0001A0560E471E08BEC91E00E941A0522E0A2
:100FF000B501A4018BEC91E00E942C0468E471E03F
:101000008BEC91E00E941A0568EC70E080E090E0C3
:101010000E944602E0EBF0E08491ECE9F0E0F4900D
:10102000F101E490EE2009F488C081110E94990139
:10103000EE2DF0E0EE0FFF1FE458FF4FA591B491A5
:101040008C91F82231E020E009F430E0832F922FD8
:101050009093CA018093C9012091C7013091C801C2
:101060002817390709F448C0019709F069C0809131
:10107000C5019091C60101969093C6018093C50168
:1010800063E871E08BEC91E00E94D10363E971E0C9
:101090008BEC91E00E94D10366E971E08BEC91E06A
:1010A0000E941A05C090C501D090C6010D2C000CFD
:1010B000EE08FF082AE0B701A601F7FE0DC06DE2B9
:1010C0008BEC91E00E942C0144275527BA014C1962
:1010D0005D096E097F092AE08BEC91E00E94E00334
:1010E00063E971E08BEC91E00E94D10365E070E070
:1010F00080E090E00E9446028091C9019091CA016F
:101100009093C8018093C7018091C50180FD1FC0E5
:1011100061E08DE00E94C20160E08CE00E94C201AB
:1011200080E090E0892B09F413CE0E94F60088231A
:1011300009F40ECE0E9400000BCE90E080E088CF34
:101140006EEA71E08BEC91E00E94D103C9CF60E0C0
:101150008DE00E94C20161E0E0CF60E08BE00E9480
:10116000C201ADCE5058BB27AA270E94CA080C94D2
:101170003D0A0E942F0A38F00E94360A20F039F406
:101180009F3F19F426F40C942C0A0EF4E095E7FB2B
:101190000C94260AE92F0E944E0A58F3BA176207E8
:1011A00073078407950720F079F4A6F50C94700A6C
:1011B0000EF4E0950B2EBA2FA02D0B01B901900172
:1011C0000C01CA01A0011124FF27591B99F0593FB6
:1011D00050F4503E68F11A16F040A22F232F342FFE
:1011E0004427585FF3CF469537952795A795F0404C
:1011F0005395C9F77EF41F16BA0B620B730B840B61
:10120000BAF09150A1F0FF0FBB1F661F771F881F18
:10121000C2F70EC0BA0F621F731F841F48F4879570
:1012200077956795B795F7959E3F08F0B0CF939562
:10123000880F08F09927EE0F9795879508950E94DB
:10124000020A08F481E008950E9438090C943D0ACE
:101250000E94360A58F00E942F0A40F029F45F3F9E
:1012600029F00C94260A51110C94710A0C942C0A42
:101270000E944E0A68F39923B1F3552391F3951B0D
:10128000550BBB27AA2762177307840738F09F5FA7
:101290005F4F220F331F441FAA1FA9F335D00E2E14
:1012A0003AF0E0E832D091505040E695001CCAF781
:1012B0002BD0FE2F29D0660F771F881FBB1F261744
:1012C00037074807AB07B0E809F0BB0B802DBF011B
:1012D000FF2793585F4F3AF09E3F510578F00C94EA
:1012E000260A0C94710A5F3FE4F3983ED4F3869586
:1012F00077956795B795F7959F5FC9F7880F911D0B
:101300009695879597F90895E1E0660F771F881FF6
:10131000BB1F621773078407BA0720F0621B730BA9
:10132000840BBA0BEE1F88F7E09508950E94560AC9
:1013300088F09F5798F0B92F9927B751B0F0E1F096
:10134000660F771F881F991F1AF0BA95C9F714C046
:10135000B13091F00E94700AB1E008950C94700AC7
:10136000672F782F8827B85F39F0B93FCCF386957F
:1013700077956795B395D9F73EF4909580957095DC
:1013800061957F4F8F4F9F4F0895E89409C097FB59
:101390003EF490958095709561957F4F8F4F9F4F4C
:1013A0009923A9F0F92F96E9BB279395F695879590
:1013B00077956795B795F111F8CFFAF4BB0F11F453
:1013C00060FF1BC06F5F7F4F8F4F9F4F16C08823FA
:1013D00011F096E911C0772321F09EE8872F762F30
:1013E00005C0662371F096E8862F70E060E02AF071
:1013F0009A95660F771F881FDAF7880F969587955D
:1014000097F90895990F0008550FAA0BE0E8FEEF31
:1014100016161706E807F907C0F012161306E407B8
:10142000F50798F0621B730B840B950B39F40A26B1
:1014300061F0232B242B252B21F408950A2609F48F
:10144000A140A6958FEF811D811D089597F99F6793
:1014500080E870E060E008959FEF80EC089500243C
:101460000A941616170618060906089500240A9409
:1014700012161306140605060895092E0394000C8F
:1014800011F4882352F0BB0F40F4BF2B11F460FF1E
:1014900004C06F5F7F4F8F4F9F4F089557FD905847
:1014A000440F551F59F05F3F71F04795880F97FB28
:1014B000991F61F09F3F79F08795089512161306E2
:1014C0001406551FF2CF4695F1DF08C01616170611
:1014D0001806991FF1CF8695710561050894089546
:1014E000E894BB2766277727CB0197F908950E94D8
:1014F000020A08F48FEF08950E948F0A0C943D0AA7
:101500000E942F0A38F00E94360A20F0952311F02D
:101510000C94260A0C942C0A11240C94710A0E9433
:101520004E0A70F3959FC1F3950F50E0551F629FCF
:10153000F001729FBB27F00DB11D639FAA27F00D2C
:10154000B11DAA1F649F6627B00DA11D661F829F53
:101550002227B00DA11D621F739FB00DA11D621F38
:10156000839FA00D611D221F749F3327A00D611D55
:10157000231F849F600D211D822F762F6A2F112437
:101580009F5750409AF0F1F088234AF0EE0FFF1F6A
:10159000BB1F661F771F881F91505040A9F79E3FC1
:1015A000510580F00C94260A0C94710A5F3FE4F315
:1015B000983ED4F3869577956795B795F795E79517
:1015C0009F5FC1F7FE2B880F911D9695879597F920
:1015D000089519F416F40C942C0A0C94340B0E9400
:1015E000560AB8F39923C9F3B6F39F57550B87FFF3
:1015F0000E94420B0024A0E640EA900180585695D4
:10160000979528F4805C660F771F881F20F02617B7
:101610003707480730F4621B730B840B20293129EC
:101620004A2BA69517940794202531254A2758F769
:10163000660F771F881F20F026173707480730F4FA
:10164000620B730B840B200D311D411DA09581F79A
:10165000B901842F9158880F9695879508950E9417
:10166000020A880B990B08959F3F31F0915020F4A6
:10167000879577956795B795880F911D969587956E
:1016800097F9089591505040660F771F881FD2F741
:101690000895A1E21A2EAA1BBB1BFD010DC0AA1FB3
:1016A000BB1FEE1FFF1FA217B307E407F50720F0CB
:1016B000A21BB30BE40BF50B661F771F881F991F46
:1016C0001A9469F760957095809590959B01AC018F
:1016D000BD01CF010895052E97FB1EF400940E94D2
:1016E000820B57FD07D00E94490B07FC03D04EF434
:1016F0000C94820B50954095309521953F4F4F4F5C
:101700005F4F089590958095709561957F4F8F4FAD
:101710009F4F0895EE0FFF1F0590F491E02D09945F
:10172000F894FFCF01000000002C018C00B9007973
:1017300001EA00C800DC0000000000CB038C007947
:101740000278026E616E00696E66006F7666004D0B
:1017500065646963696F6E20646520636F6E73757D
:101760006D6F3A0044696172696F3A006B576800A7
:10177000436F727269656E74653A004100506F7410
:10178000656E6369613A006B5700506F74656E63F4
:101790006961202857293A00506F74656E6369614A
:1017A00020286B57293A00426F746F6E20656E6374
:1017B000656E6469646F000D0A006E756D65726F09
:1017C0002064652070756C736163696F6E65733A30
:1017D0002000426F746F6E206170616761646F00FA
:107E0000112484B714BE81FFF0D085E080938100F7
:107E100082E08093C00088E18093C10086E0809377
:107E2000C20080E18093C4008EE0C9D0259A86E02C
:107E300020E33CEF91E0309385002093840096BBD3
:107E4000B09BFECF1D9AA8958150A9F7CC24DD24C4
:107E500088248394B5E0AB2EA1E19A2EF3E0BF2EE7
:107E6000A2D0813461F49FD0082FAFD0023811F036
:107E7000013811F484E001C083E08DD089C08234E0
:107E800011F484E103C0853419F485E0A6D080C0E4
:107E9000853579F488D0E82EFF2485D0082F10E0AE
:107EA000102F00270E291F29000F111F8ED06801E7
:107EB0006FC0863521F484E090D080E0DECF843638
:107EC00009F040C070D06FD0082F6DD080E0C81688
:107ED00080E7D80618F4F601B7BEE895C0E0D1E017
:107EE00062D089930C17E1F7F0E0CF16F0E7DF06D8
:107EF00018F0F601B7BEE89568D007B600FCFDCFD4
:107F0000A601A0E0B1E02C9130E011968C91119780
:107F100090E0982F8827822B932B1296FA010C0160
:107F200087BEE89511244E5F5F4FF1E0A038BF0790
:107F300051F7F601A7BEE89507B600FCFDCF97BE46
:107F4000E89526C08437B1F42ED02DD0F82E2BD052
:107F50003CD0F601EF2C8F010F5F1F4F84911BD097
:107F6000EA94F801C1F70894C11CD11CFA94CF0C13
:107F7000D11C0EC0853739F428D08EE10CD085E9AC
:107F80000AD08FE07ACF813511F488E018D01DD067
:107F900080E101D065CF982F8091C00085FFFCCF94
:107FA0009093C60008958091C00087FFFCCF809118
:107FB000C00084FD01C0A8958091C6000895E0E648
:107FC000F0E098E1908380830895EDDF803219F02E
:107FD00088E0F5DFFFCF84E1DECF1F93182FE3DFCA
:107FE0001150E9F7F2DF1F91089580E0E8DFEE27F6
:047FF000FF270994CA
:027FFE00040479
:00000001FF
